:100000000C943A000C9457000C9457000C9469051A
:100010000C9459000C9457000C9457000C94570002
:100020000C9457000C9457000C9457000C94B0009B
:100030000C9457000C9457000C949D040C9457009A
:100040000C9457000C9457000C94E9040C9457003E
:100050000C9457000C9457000C9457000C945700C4
:100060000C9457000C9457006364696E6F7073753D
:1000700078585B0011241FBECFEFD8E0DEBFCDBFA4
:1000800011E0A0E0B1E0E6EDF8E102C005900D92CC
:10009000A235B107D9F711E0A2E5B1E001C01D9288
:1000A000A139B107E1F70E94E4000C94690C0C94AB
:1000B00000001F920F920FB60F9211242F933F93BF
:1000C0005F936F937F938F939F93AF93BF93809131
:1000D00058018F5F8093580180FF14C010928500F3
:1000E00010928400809181008860809381008091CB
:1000F0006F00826080936F008091810082608093A6
:10010000810020C080918100887F80938100809150
:10011000840090918500909357018093560120911F
:10012000560130915701C901880F991F880F991FF7
:10013000820F931F6AE370E00E940E0670935501D0
:1001400060935401BF91AF919F918F917F916F9177
:100150005F913F912F910F900FBE0F901F901895B8
:100160001F920F920FB60F9211242F933F934F932C
:100170005F936F937F938F939F93AF93BF93EF930F
:10018000FF93E1E8F0E08081887F80831092850012
:100190001092840081E08093580180E068E00E9422
:1001A000DB0310926401FF91EF91BF91AF919F919A
:1001B0008F917F916F915F914F913F912F910F9010
:1001C0000FBE0F901F9018952F923F924F925F9203
:1001D0006F927F928F929F92AF92BF92CF92DF9257
:1001E000EF92FF920F931F93CF93DF930E94E5034B
:1001F0000E940E0480E00E94720487E690E00E9454
:10020000CF048091C10080688093C10088B186606E
:1002100088B9529A459A85B1886185B9539A809177
:10022000680083608093680080916C008062809396
:100230006C0080916B00886180936B00259A3C9ADA
:10024000789483B1992787FD90959C0103E03695BA
:1002500027950A95E1F7217084FD07C0222319F440
:100260001092860109C081E005C0222311F482E0CA
:1002700001C083E0809386018091860180936C01A8
:1002800084E690E00E94F20A18163CF4992787FD54
:10029000909590935B0180935A011DE6212E11E009
:1002A000312EB5E0AB2EB12CA0E9EA2EA1E0FA2E5A
:1002B00007E811E0FAE04F2E512CE2E1CE2EE1E00A
:1002C000DE2EC7E6D1E079E1672E71E0772E6CE78C
:1002D000862E61E0962E81E060E00E94DB03809133
:1002E0005A0190915B012DB73EB7285030400FB6B0
:1002F000F8943EBF0FBE2DBFEDB7FEB73196ADB738
:10030000BEB712963C922E921197B382A28220E041
:1003100031E035832483978386830E9435064DB769
:100320005EB7485F5F4F0FB6F8945EBF0FBE4DBF1C
:10033000C1010E94BF0380915901882321F53199A1
:1003400015C0319BFECF81E08093590180E060E0D1
:100350000E94DB0384E091E00E94BF0388EE93E0FB
:10036000F7013197F1F70197D9F724C0329922C0EC
:1003700081E08093640188EE93E0F7013197F1F713
:100380000197D9F717C08130A9F4319913C0319B77
:10039000FECF1092590180E060E00E94DB038BE009
:1003A00091E00E94BF0380ED97E0F7013197F1F7EC
:1003B0000197D9F780915901882309F08DC0809168
:1003C0006401813009F01DC15A9A8AE68A95F1F7D5
:1003D0005A98109264018091580180FDB3C18091B8
:1003E00054019091550189970CF40BC180915401EF
:1003F00090915501805A9F400CF065C080E068E004
:100400000E94DB0380915401909155012091540189
:1004100030915501ADB7BEB71A970FB6F894BEBF6D
:100420000FBEADBFEDB7FEB7319612961C930E937B
:10043000119753824282D582C4826AE070E00E94A2
:100440000E0677836683C9016AE070E00E940E069B
:10045000918780870E9435062DB73EB7265F3F4FB4
:100460000FB6F8943EBF0FBE2DBFC8010E94BF0358
:1004700080915401909155014DB75EB7485050405E
:100480000FB6F8945EBF0FBE4DBFEDB7FEB7319605
:10049000ADB7BEB71296DC93CE931197B382A2820A
:1004A00075826482978386830E9435062DB73EB796
:1004B000285F3F4F0FB6F8943EBF0FBE2DBFCE0151
:1004C0000E943E059EC080E068E00E94DB038CE154
:1004D00091E00E94BF0395C0813009F092C05A9A02
:1004E0008AE68A95F1F75A9880915801813009F48B
:1004F0002AC1809154019091550189970CF481C0D3
:100500008091540190915501805A9F400CF06AC02F
:1005100080E068E00E94DB038091540190915501D6
:1005200020915401309155014DB75EB74A5050406B
:100530000FB6F8945EBF0FBE4DBFEDB7FEB7319654
:10054000ADB7BEB712961C930E9311975382428299
:10055000D582C4826AE070E00E940E0677836683CB
:10056000C9016AE070E00E940E06918780870E94B0
:1005700035062DB73EB7265F3F4F0FB6F8943EBF06
:100580000FBE2DBFC8010E94BF03809154019091FE
:1005900055014DB75EB7485050400FB6F8945EBF56
:1005A0000FBE4DBFEDB7FEB73196ADB7BEB71296D1
:1005B000DC93CE931197B382A28275826482978373
:1005C00086830E9435062DB73EB7285F3F4F0FB692
:1005D000F8943EBF0FBE2DBFCE010E943E05109283
:1005E000580108C080E068E00E94DB038CE191E0E4
:1005F0000E94BF0380ED97E0F7013197F1F7019773
:10060000D9F780915E0190915F01019709F082C056
:1006100000D000D000D0EDB7FEB7319622E731E030
:10062000ADB7BEB712963C932E93119744E251E0BA
:100630005383428382E691E0958384830E94660619
:10064000ADB7BEB716960FB6F894BEBF0FBEADBF1E
:100650008091620190916301815A9F403CF081E05A
:1006600068E00E94DB0388E291E039C081E068E045
:100670000E94DB0320916201309163014DB75EB7A8
:100680004A5050400FB6F8945EBF0FBE4DBFEDB755
:10069000FEB73196ADB7BEB712969C928E92119767
:1006A00046E050E053834283D582C482C9016AE0A8
:1006B00070E00E940E0677836683C9016AE070E0ED
:1006C0000E940E06918780870E9435068DB79EB7DF
:1006D0000A960FB6F8949EBF0FBE8DBFC4010E944C
:1006E000BF0320915A0130915B018091620190918A
:1006F00063016AE070E00E940E066217730714F44B
:100700000E948F0410925F0110925E0110925D01B1
:1007100010925C012091620130916301809154013B
:10072000909155018217930714F4449A2D98809163
:10073000540190915501281739070CF0CCCD2D9A12
:100740004498C9CDFFCFFFCF9BB19F709BB99BB1A0
:10075000807F892B8BB9299A299A299808951F930C
:10076000182F289A0E94A403812F8295807F0E94CF
:10077000A40380E49FE10197F1F71F910895CF93BF
:10078000DF93EC0102C00E94AF0389918823D9F75F
:10079000DF91CF9108951F93182F28980E94A403EA
:1007A000812F8295807F0E94A40380E49FE10197BE
:1007B000F1F71F910895882319F4862F805802C0FD
:1007C000862F80540E94CB0308958AB1806F8AB926
:1007D00084B1836084B980E69AEE0197F1F783E0F3
:1007E0000E94A40380E29EE40197F1F783E00E9457
:1007F000A40380EE91E00197F1F783E00E94A40347
:1008000082E00E94A40380E49FE10197F1F788E26F
:100810000E94CB038FE00E94CB0308950F931F9398
:10082000DF93CF93CDB7DEB76E970FB6F894DEBFE8
:100830000FBECDBF80E060E00E94DB0381E391E06A
:100840000E94BF0381E060E00E94DB038DB79EB78A
:100850000C970FB6F8949EBF0FBE8DBFEDB7FEB7D5
:1008600031968E010F5F1F4FADB7BEB712961C9326
:100870000E9311978EE190E0938382838EE391E053
:100880009583848387E090E0978386838CE090E073
:10089000918780878FEC90E0938782870E9435064E
:1008A0008DB79EB70C960FB6F8949EBF0FBE8DBF46
:1008B000C8010E94BF0380E197E220E931E0F9011D
:1008C0003197F1F70197D9F781E00E94CB036E963B
:1008D0000FB6F894DEBF0FBECDBFCF91DF911F9151
:1008E0000F910895ECE7F0E090E6908390818F708F
:1008F000892B8083EAE7F0E08081876080838081B4
:1009000080688083089580917A00806480937A0063
:1009100080917A0086FDFCCF80917900089584B59E
:10092000826084BDEEE6F0E08081826080838EE3A9
:1009300087BD85B5846085BD08951F920F920FB65F
:100940000F9211242F938F939F9380916501909123
:10095000660101969093660180936501809165011F
:100960009091660180FD02C05B9A01C05C98809105
:10097000650190916601885E934049F48091810001
:10098000887F8093810010926601109265019F918B
:100990008F912F910F900FBE0F901F90189526E00A
:1009A0002093C200E1ECF0E0208128612083909345
:1009B000C5008093C4008081806880833B9A4398FF
:1009C0000895982F8091C00085FFFCCF9093C600BA
:1009D00008951F920F920FB60F9211242F938F93A9
:1009E0009F93EF93FF932091C600203451F481E050
:1009F00090E090935D0180935C0110925F011092F2
:100A00005E0180915C0190915D01892B69F1243236
:100A1000D1F0E0916001F0916101EE58FE4F20832A
:100A200080916001909161010196909361018093A2
:100A3000600180916001909161010697ACF0109285
:100A40005D0110925C0181E090E090935F018093E2
:100A50005E01E0916001F0916101EE58FE4F10825D
:100A60001092610110926001FF91EF919F918F911F
:100A70002F910F900FBE0F901F901895AC01809191
:100A8000C00085FFFCCF80E48093C600DA010D90A2
:100A90000020E9F71197A41BB50B20E030E00EC051
:100AA000FA01E20FF31FE081E03231F08091C000E3
:100AB00085FFFCCFE093C6002F5F3F4F2A173B070F
:100AC00078F38091C00085FFFCCF84E28093C6005C
:100AD00008951F920F920FB60F9211242F933F93F8
:100AE0004F935F936F937F938F939F93AF93BF9336
:100AF000EF93FF9383B1992787FD90959C0144E084
:100B0000369527954A95E1F7217033E096958795BC
:100B10003A95E1F7982F917080918601882369F4C6
:100B2000913031F4222309F045C090936C012EC01E
:100B3000213009F03FC082E032C0809186018130CF
:100B400069F4213021F4913011F483E01DC0992320
:100B500089F5222379F510926C0123C080918601DA
:100B6000823069F4992329F4222319F410926C013C
:100B70000DC02130F9F49130E9F483E010C09923DD
:100B800059F42130B9F482E080936C0180915A01CC
:100B900090915B0101960AC0222361F481E0809369
:100BA0006C0180915A0190915B01019790935B01D8
:100BB00080935A0180915A0190915B0197FF06C082
:100BC00080E991E090935B0180935A0180915A01F2
:100BD00090915B018159914024F010925B01109239
:100BE0005A0160915A0170915B0184E690E00E9485
:100BF000F80A80916C0180938601FF91EF91BF917B
:100C0000AF919F918F917F916F915F914F913F91A4
:100C10002F910F900FBE0F901F90189597FB092EE4
:100C200007260AD077FD04D00CD006D000201AF495
:100C3000709561957F4F0895F6F7909581959F4F38
:100C40000895AA1BBB1B51E107C0AA1FBB1FA61713
:100C5000B70710F0A61BB70B881F991F5A95A9F765
:100C600080959095BC01CD010895AEE0B0E0EBE336
:100C7000F6E00C94400C0D891E898F89988D97FFA2
:100C800002C080E090E801979E838D831A830983D8
:100C900086E08C839E01255E3F4FCE010196698DD3
:100CA0007A8DA9010E9480064D815E8157FD0AC0A0
:100CB0002F813885421753070CF49A01020F131F36
:100CC000F80110822E96E4E00C945C0CAEE0B0E0EB
:100CD000ECE6F6E00C94420C85E08C838B899C89D1
:100CE0009A8389839E01295E3F4FCE0101966D89CB
:100CF0007E89A9010E94E1092E96E2E00C945E0C27
:100D0000ABE0B0E0E6E8F6E00C94320C3C012B01DD
:100D10005A01FC0117821682838181FD03C06FEFA7
:100D20007FEFC6C19AE0892E1E010894211C311C58
:100D3000F3012381F20123FD859123FF81912F018E
:100D4000882309F4B2C1853239F423FD859123FF4C
:100D500081912F01853229F490E0B3010E94690B43
:100D6000E7CF982FFF24EE249924FFE1FF15D0F060
:100D70009B3269F09C3228F4903259F0933291F40E
:100D80000EC09D3249F0903369F441E024C052E036
:100D9000F52A84E0F82A28C098E0F92A25C0E0E185
:100DA000FE2A22C0F7FC29C0892F80538A3070F4B4
:100DB000F6FE05C0989C902C1124980E15C0E89C56
:100DC000E02C1124E80EF0E2FF2A0EC09E3229F436
:100DD000F6FC6BC140E4F42A07C09C3619F450E8D5
:100DE000F52A02C0983649F4F20123FD959123FFBC
:100DF00091912F01992309F0B8CF892F8554833021
:100E000018F08052833038F444E050E0A40EB51E50
:100E10005FE359830FC0933631F0933779F0933500
:100E200009F056C020C0F5018081898342E050E07E
:100E3000A40EB51E610101E010E012C0F501C080F2
:100E4000D180F6FC03C06FEF7FEF02C0692D70E028
:100E500042E050E0A40EB51EC6010E941C0B8C019E
:100E60005FE7F52214C0F501C080D180F6FC03C015
:100E70006FEF7FEF02C0692D70E042E050E0A40EFA
:100E8000B51EC6010E94110B8C0150E8F52AF3FE35
:100E900007C01AC080E290E0B3010E94690BEA9497
:100EA0008E2D90E008171907A8F30EC0F601F7FC85
:100EB0008591F7FE81916F0190E0B3010E94690B6B
:100EC000E110EA94015010400115110579F7EAC0CC
:100ED000943611F0993669F5F7FE08C0F5012081C6
:100EE00031814281538184E090E00AC0F501808124
:100EF00091819C01442737FD4095542F82E090E07A
:100F0000A80EB91E9FE6F92257FF09C050954095DB
:100F1000309521953F4F4F4F5F4FE0E8FE2ACA01C1
:100F2000B901A1012AE030E00E94AF0BD82ED218FF
:100F300040C0953729F41F2D1F7E2AE030E01DC0E8
:100F40001F2D197F9F3661F0903720F4983509F0F6
:100F5000ACC00FC0903739F0983709F0A6C004C074
:100F600028E030E00AC0106114FD146020E130E098
:100F700004C014FD166020E132E017FF08C0F5013F
:100F8000608171818281938144E050E008C0F50165
:100F900080819181BC0180E090E042E050E0A40EAD
:100FA000B51EA1010E94AF0BD82ED2188FE7F82EE4
:100FB000F122F6FE0BC05EEFF522D91438F4F4FEF0
:100FC00007C0F2FC05C08FEEF82202C01D2D01C043
:100FD000192DF4FE0DC0FE01ED0DF11D8081803351
:100FE00019F499EEF92208C01F5FF2FE05C003C094
:100FF0008F2D867809F01F5F0F2DF3FC14C0F0FED3
:101000000FC01E1510F09D2C0BC09D2C9E0C911A2C
:101010001E2D06C080E290E0B3010E94690B1F5FA5
:101020001E15C0F304C01E1510F4E11A01C0EE2411
:1010300004FF0FC080E390E0B3010E94690B02FF40
:101040001DC001FD03C088E790E00EC088E590E078
:101050000BC0802F867891F001FF02C08BE201C0A7
:1010600080E2F7FC8DE290E0B3010E94690B06C0BC
:1010700080E390E0B3010E94690B9A94D914C0F305
:10108000DA94F101ED0DF11D808190E0B3010E9431
:10109000690BDD20A9F706C080E290E0B3010E9451
:1010A000690BEA94EE20C1F743CEF30166817781A4
:1010B000CB012B96E2E10C944E0CFC0120FD08C004
:1010C00023FD05C022FF02C07383628351834083E6
:1010D0000895EF92FF920F931F9344FF02C033E0F5
:1010E00011C046FF02C034E00DC0DB01FC01AA0FB5
:1010F000BB1FEE1FFF1F1094D1F76A0F7B1F8E1FBF
:101100009F1F31E0660F771F881F991F3150D1F75D
:101110007B018C01E20EF11C011D111DA80197013C
:10112000B701CA011F910F91FF90EF9008950F939F
:101130001F93CF93DF938C01C8010E94270BEC0112
:1011400097FD08C00E94FE0A892BB1F7CE01B801B5
:101150000E94950BCE01DF91CF911F910F910895C1
:10116000A0E0B0E0E6EBF8E00C943A0CEC01C62EFF
:101170005A01122F0E94270BAC018B3219F08D32CD
:1011800051F41068CA9409F46DC0CE010E94270B77
:10119000AC0197FD67C06DEFD62ED1228D2D8073E7
:1011A00001F54033F1F4CA9409F447C0CE010E941E
:1011B000270BAC0197FD41C082E0D82A483711F0D7
:1011C000483559F480E4D82ACA94B9F1CE010E9476
:1011D000270BAC0199232CF430C0D6FC02C080E16F
:1011E000D82AEE24FF248701242F2053283088F0AA
:1011F000D4FC09C02A3068F0D6FE05C02F7D822FAE
:101200008151863028F0CA01BE010E94950B12C0A0
:101210002750C801B7014D2D0E9469087B018C0140
:1012200082E0D82ACA9461F0CE010E94270BAC015B
:1012300097FFDACFD1FC04C015C0EE24FF2487014C
:10124000D7FE08C010950095F094E094E11CF11CC5
:10125000011D111DC501B801A7012D2D0E945D08BA
:1012600081E001C080E0CDB7DEB7EAE00C94560C17
:10127000A0E2B0E0EEE3F9E00C94360C6C01A62E8F
:101280008A017901FE01319680E2DF011D928A9583
:10129000E9F770E030E060E040E050E04F01A1E0AD
:1012A000B0E0F6018381F70183FD259183FF219151
:1012B0007F01222309F47EC02E3519F44115510512
:1012C00069F1872F90E08417950744F42D3551F18B
:1012D0002D3221F4332329F431E021C0332309F4E2
:1012E000622F322F832F869586958695F401E80F1D
:1012F000F11D832F87703D0102C0660C771C8A9513
:10130000E2F7208126292083361711F430E007C048
:10131000361710F43F5FE6CF3150E4CF71E04F5FF6
:101320005F4FBFCF332319F08E8180628E83772386
:1013300059F0FE0131969E012F5D3F4F80818095CF
:101340008193E217F307D1F7BB24B3944E010894BD
:10135000811C911CC6010E94270BAC0197FD22C085
:10136000869586958695F401E80FF11D808190E0C1
:101370009A012770307002C0959587952A95E2F7FB
:1013800080FD05C0CA01B6010E94950B0BC0011576
:10139000110519F0D8014D938D01AA94BB24AA2000
:1013A000C9F602C0BB2031F40115110529F0F8017E
:1013B000108202C0EE24FF24C701A096EEE00C9438
:1013C000520CA0E0B0E0E7EEF9E00C94360C5C01C2
:1013D0006B013A01FC01178216828824EAC0812F32
:1013E00090E00E94FE0A892B21F0C5010E94970817
:1013F000E0C0153249F4F601F3FC6591F3FE61910A
:101400006F01653269F415E2C5010E94270B97FD53
:10141000DCC0181709F4CDC0B5010E94950BDAC0E5
:101420006A3219F0162F00E006C0F3FC1591F3FEA6
:1014300011916F0101E099240FC00260692D70E0E5
:1014400080E090E040E20E946908962EF601F3FCED
:101450001591F3FE11916F01212F20532A3068F36B
:1014600001FD03C099249A9403C0992009F4B2C0E5
:10147000183621F01C3699F4F6010BC0F601F3FC86
:101480006591F3FE6191683619F06F01162F07C060
:1014900008600460F3FC1591F3FE11916F011123B4
:1014A00009F498C088E690E0612F70E00E94060B76
:1014B000892B09F48FC0802F00FF03C0EE24FF2486
:1014C00007C0F301E080F18022E030E0620E731E7D
:1014D0001E3651F4F5014681578160E070E0C70186
:1014E000202F0E945D0865C0133691F481FD02C073
:1014F00099249394C5010E94270B97FD66C0E114BF
:10150000F10419F0F70181937F019A9499F74FC084
:101510001B3559F4C501692DA70196010E943809B0
:101520006C01009709F043C03DC0C5010E949708B7
:1015300097FD4BC01F3659F1103728F4143629F1A6
:10154000193639F527C0133719F0153711F51DC0B5
:10155000C5010E94270BEC0197FD11C00E94FE0AF5
:10156000892B29F0CE01B5010E94950B08C0E1142A
:10157000F10419F0F701C1937F019A9449F7E1143E
:10158000F104A9F0F701108212C0006203C00061EB
:1015900001C00064C501692DA701202F0E94B00879
:1015A000882329F4F5018381807379F413C000FF47
:1015B0008394F501F380F601F3FC1591F3FE11918C
:1015C0006F01112309F00BCF05C0882019F42FEF0C
:1015D0003FEF02C0282D30E0C901CDB7DEB7EEE005
:1015E0000C94520CA8E1B0E042E050E00C940F0CD7
:1015F0000196272F0E941E0C0C941D0C91112FC1D7
:10160000803219F089508550D0F70895FC0105907B
:10161000061621F00020D9F7C00108953197CF01B7
:101620000895FC010590615070400110D8F7809535
:1016300090958E0F9F1F0895FC016150704001909E
:101640000110D8F7809590958E0F9F1F0895CF9326
:10165000DF93EC014B8140FF1AC046FF0AC04F7B6D
:101660004B838E819F8101969F838E838A81282F51
:101670002BC042FF13C0E881F9818081282F3327D6
:1016800027FD30952115310529F440624B832FEF5A
:101690003FEF1BC03196F983E88311C0EA85FB85D3
:1016A000CE0109959C0197FF0AC09B812F5F3F4F98
:1016B00011F080E201C080E1892B8B83E8CF8E811D
:1016C0009F8101969F838E8330E0C901DF91CF9186
:1016D00008950F931F93CF93DF938C01EB018B81C0
:1016E00081FF1BC082FF0DC02E813F818C819D81B7
:1016F0002817390764F4E881F9810193F983E883B5
:1017000006C0E885F985802F0995892B31F48E81F3
:101710009F8101969F838E8302C00FEF1FEFC80148
:10172000DF91CF911F910F9108959C01FB0183815F
:1017300080FF11C086FD0FC09FEF2F3F390759F082
:10174000228380648F7D838386819781019797832D
:10175000868330E002C02FEF3FEFC9010895FA0100
:10176000AA27283051F1203181F1E8946F936E7FE0
:101770006E5F7F4F8F4F9F4FAF4FB1E03ED0B4E0D1
:101780003CD0670F781F891F9A1FA11D680F791F12
:101790008A1F911DA11D6A0F711D811D911DA11D23
:1017A00020D009F468943F912AE0269F1124301933
:1017B000305D3193DEF6CF010895462F4770405DCE
:1017C0004193B3E00FD0C9F7F6CF462F4F70405D7D
:1017D0004A3318F0495D31FD4052419302D0A9F7D8
:1017E000EACFB4E0A6959795879577956795BA95D2
:1017F000C9F700976105710508959B01AC010A2E98
:1018000006945795479537952795BA95C9F7620F6E
:10181000731F841F951FA01D0895DC01CB01FC01DF
:10182000F999FECF06C0F2BDE1BDF89A319600B439
:101830000D9241505040B8F70895262FF999FECFE8
:1018400092BD81BDF89A019700B4021639F01FBA13
:1018500020BD0FB6F894FA9AF99A0FBE0895992709
:10186000882708952F923F924F925F926F927F92B6
:101870008F929F92AF92BF92CF92DF92EF92FF92A0
:101880000F931F93CF93DF93CDB7DEB7CA1BDB0B4C
:101890000FB6F894DEBF0FBECDBF09942A883988F1
:1018A00048885F846E847D848C849B84AA84B984F8
:1018B000C884DF80EE80FD800C811B81AA81B98104
:1018C000CE0FD11D0FB6F894DEBF0FBECDBFED0118
:0618D0000895F894FFCF1B
:1018D600253364007265706561740073696E676CA8
:1018E60065002533642E256400256400546F6F203F
:1018F60066617200402564003E343030000B0104FE
:10190600014368756E79616E67204D6F7500697366
:1019160020626F726E20696E2025642F25642F2544
:0219260064005B
:00000001FF
